{
  "address": "0x10cbF251a7DCC3035509Fa77D0326DE53715fD4D",
  "abi": [
    {
      "anonymous": false,
      "inputs": [
        {
          "indexed": true,
          "internalType": "address",
          "name": "vaultAddress",
          "type": "address"
        },
        {
          "indexed": false,
          "internalType": "uint256",
          "name": "amount",
          "type": "uint256"
        }
      ],
      "name": "Claim",
      "type": "event"
    },
    {
      "anonymous": false,
      "inputs": [
        {
          "indexed": true,
          "internalType": "address",
          "name": "vaultAddress",
          "type": "address"
        },
        {
          "indexed": true,
          "internalType": "address",
          "name": "depositor",
          "type": "address"
        },
        {
          "indexed": true,
          "internalType": "address",
          "name": "receiver",
          "type": "address"
        },
        {
          "indexed": false,
          "internalType": "uint256",
          "name": "depositAmount",
          "type": "uint256"
        },
        {
          "indexed": false,
          "internalType": "uint256",
          "name": "getShareAmount",
          "type": "uint256"
        }
      ],
      "name": "Deposit",
      "type": "event"
    },
    {
      "anonymous": false,
      "inputs": [
        {
          "indexed": true,
          "internalType": "address",
          "name": "creator",
          "type": "address"
        },
        {
          "indexed": true,
          "internalType": "address",
          "name": "assets",
          "type": "address"
        },
        {
          "indexed": false,
          "internalType": "string",
          "name": "name",
          "type": "string"
        },
        {
          "indexed": false,
          "internalType": "string",
          "name": "symbol",
          "type": "string"
        },
        {
          "indexed": false,
          "internalType": "uint8",
          "name": "sharePoolRatio",
          "type": "uint8"
        },
        {
          "indexed": false,
          "internalType": "uint8",
          "name": "shareDiluteRatio",
          "type": "uint8"
        },
        {
          "indexed": false,
          "internalType": "address",
          "name": "vaultAddress",
          "type": "address"
        }
      ],
      "name": "NewVault",
      "type": "event"
    },
    {
      "anonymous": false,
      "inputs": [
        {
          "indexed": true,
          "internalType": "address",
          "name": "vaultAddress",
          "type": "address"
        },
        {
          "indexed": true,
          "internalType": "address",
          "name": "redeemor",
          "type": "address"
        },
        {
          "indexed": true,
          "internalType": "address",
          "name": "receiver",
          "type": "address"
        },
        {
          "indexed": false,
          "internalType": "uint256",
          "name": "redeemShareAmount",
          "type": "uint256"
        },
        {
          "indexed": false,
          "internalType": "uint256",
          "name": "getAssetAmount",
          "type": "uint256"
        }
      ],
      "name": "Redeem",
      "type": "event"
    },
    {
      "inputs": [
        {
          "internalType": "address",
          "name": "",
          "type": "address"
        },
        {
          "internalType": "uint256",
          "name": "",
          "type": "uint256"
        }
      ],
      "name": "allVaults",
      "outputs": [
        {
          "internalType": "address",
          "name": "",
          "type": "address"
        }
      ],
      "stateMutability": "view",
      "type": "function"
    },
    {
      "inputs": [
        {
          "internalType": "address",
          "name": "vaultAddress",
          "type": "address"
        }
      ],
      "name": "claim",
      "outputs": [],
      "stateMutability": "nonpayable",
      "type": "function"
    },
    {
      "inputs": [],
      "name": "claimAll",
      "outputs": [],
      "stateMutability": "nonpayable",
      "type": "function"
    },
    {
      "inputs": [
        {
          "internalType": "address",
          "name": "asset_",
          "type": "address"
        },
        {
          "internalType": "string",
          "name": "name_",
          "type": "string"
        },
        {
          "internalType": "string",
          "name": "symbol_",
          "type": "string"
        },
        {
          "internalType": "uint8",
          "name": "sharePoolRatio_",
          "type": "uint8"
        },
        {
          "internalType": "uint8",
          "name": "shareDiluteRatio_",
          "type": "uint8"
        }
      ],
      "name": "createVault",
      "outputs": [
        {
          "internalType": "address",
          "name": "vaultAddress",
          "type": "address"
        }
      ],
      "stateMutability": "nonpayable",
      "type": "function"
    },
    {
      "inputs": [
        {
          "internalType": "address",
          "name": "vaultAddress",
          "type": "address"
        },
        {
          "internalType": "uint256",
          "name": "assets",
          "type": "uint256"
        },
        {
          "internalType": "address",
          "name": "receiver",
          "type": "address"
        }
      ],
      "name": "deposit",
      "outputs": [
        {
          "internalType": "uint256",
          "name": "getShareAmount",
          "type": "uint256"
        }
      ],
      "stateMutability": "nonpayable",
      "type": "function"
    },
    {
      "inputs": [
        {
          "internalType": "address",
          "name": "vaultAddress",
          "type": "address"
        },
        {
          "internalType": "uint256",
          "name": "shares",
          "type": "uint256"
        },
        {
          "internalType": "address",
          "name": "receiver",
          "type": "address"
        },
        {
          "internalType": "address",
          "name": "owner",
          "type": "address"
        }
      ],
      "name": "redeem",
      "outputs": [
        {
          "internalType": "uint256",
          "name": "getAssetAmount",
          "type": "uint256"
        }
      ],
      "stateMutability": "nonpayable",
      "type": "function"
    }
  ],
  "transactionHash": "0x0584039f80ba5d0dc4f881010ee839dda3478a5faca76a31cb06bbe0cf7d0519",
  "args": [],
  "numDeployments": 1,
  "solcInputHash": "ba6b2c73bc06716c6a02deb7dda4b710",
  "bytecode": "0x608060405260001960015534801561001657600080fd5b50612d71806100266000396000f3fe60806040523480156200001157600080fd5b50600436106200007b5760003560e01c8063d1058e591162000056578063d1058e5914620000e4578063f45346dc14620000ee578063fea53be1146200011457600080fd5b80631e83409a14620000805780633911c0101462000099578063b62ed48f14620000cd575b600080fd5b620000976200009136600462000773565b6200012b565b005b620000b0620000aa3660046200085c565b620002e8565b6040516001600160a01b0390911681526020015b60405180910390f35b620000b0620000de36600462000901565b620003d8565b6200009762000411565b62000105620000ff36600462000930565b6200054a565b604051908152602001620000c4565b620001056200012536600462000977565b62000649565b806001600160a01b03166302d05d3f6040518163ffffffff1660e01b8152600401602060405180830381865afa1580156200016a573d6000803e3d6000fd5b505050506040513d601f19601f82011682018060405250810190620001909190620009d1565b6001600160a01b0316336001600160a01b03161462000235576040517f08c379a000000000000000000000000000000000000000000000000000000000815260206004820152602160248201527f446f6e74206675636b2077697468206f7468657273206173736574732120627260448201527f6f00000000000000000000000000000000000000000000000000000000000000606482015260840160405180910390fd5b6000816001600160a01b0316634e71d92d6040518163ffffffff1660e01b81526004016020604051808303816000875af115801562000278573d6000803e3d6000fd5b505050506040513d601f19601f820116820180604052508101906200029e9190620009f1565b9050816001600160a01b03167f47cee97cb7acd717b3c0aa1435d004cd5b3c8c57d70dbceb4e4458bbd60e39d482604051620002dc91815260200190565b60405180910390a25050565b600080338787878787604051620002ff906200074f565b620003109695949392919062000a53565b604051809103906000f0801580156200032d573d6000803e3d6000fd5b50336000818152602081815260408083208054600181018255908452919092200180547fffffffffffffffffffffffff0000000000000000000000000000000000000000166001600160a01b038581169190911790915590519294508493508916917fa3f295a8141252df6b18eb8713dbed36894f3244bc63eefa24ff9c5872fe1e9790620003c6908a908a908a908a90899062000ab5565b60405180910390a35095945050505050565b60006020528160005260406000208181548110620003f557600080fd5b6000918252602090912001546001600160a01b03169150829050565b60005b3360009081526020819052604090205460ff821610156200054757336000908152602081905260408120805460ff841690811062000456576200045662000b0c565b6000918252602080832090910154604080517f4e71d92d00000000000000000000000000000000000000000000000000000000815290516001600160a01b0390921694508492634e71d92d92600480840193829003018187875af1158015620004c3573d6000803e3d6000fd5b505050506040513d601f19601f82011682018060405250810190620004e99190620009f1565b9050816001600160a01b03167f47cee97cb7acd717b3c0aa1435d004cd5b3c8c57d70dbceb4e4458bbd60e39d4826040516200052791815260200190565b60405180910390a2505080806200053e9062000b22565b91505062000414565b50565b6040517f6e553f65000000000000000000000000000000000000000000000000000000008152600481018390526001600160a01b0382811660248301526000918591821690636e553f65906044016020604051808303816000875af1158015620005b8573d6000803e3d6000fd5b505050506040513d601f19601f82011682018060405250810190620005de9190620009f1565b9150826001600160a01b0316336001600160a01b0316866001600160a01b03167f5fe47ed6d4225326d3303476197d782ded5a4e9c14f479dc9ec4992af4e85d59878660405162000639929190918252602082015260400190565b60405180910390a4509392505050565b6040517fba087652000000000000000000000000000000000000000000000000000000008152600481018490526001600160a01b03838116602483015282811660448301526000919086169063ba087652906064016020604051808303816000875af1158015620006be573d6000803e3d6000fd5b505050506040513d601f19601f82011682018060405250810190620006e49190620009f1565b9050826001600160a01b0316826001600160a01b0316866001600160a01b03167faee47cdf925cf525fdae94f9777ee5a06cac37e1c41220d0a8a89ed154f62d1c87856040516200073f929190918252602082015260400190565b60405180910390a4949350505050565b6121eb8062000b5183390190565b6001600160a01b03811681146200054757600080fd5b6000602082840312156200078657600080fd5b813562000793816200075d565b9392505050565b634e487b7160e01b600052604160045260246000fd5b600082601f830112620007c257600080fd5b813567ffffffffffffffff80821115620007e057620007e06200079a565b604051601f8301601f19908116603f011681019082821181831017156200080b576200080b6200079a565b816040528381528660208588010111156200082557600080fd5b836020870160208301376000602085830101528094505050505092915050565b803560ff811681146200085757600080fd5b919050565b600080600080600060a086880312156200087557600080fd5b853562000882816200075d565b9450602086013567ffffffffffffffff80821115620008a057600080fd5b620008ae89838a01620007b0565b95506040880135915080821115620008c557600080fd5b50620008d488828901620007b0565b935050620008e56060870162000845565b9150620008f56080870162000845565b90509295509295909350565b600080604083850312156200091557600080fd5b823562000922816200075d565b946020939093013593505050565b6000806000606084860312156200094657600080fd5b833562000953816200075d565b92506020840135915060408401356200096c816200075d565b809150509250925092565b600080600080608085870312156200098e57600080fd5b84356200099b816200075d565b9350602085013592506040850135620009b4816200075d565b91506060850135620009c6816200075d565b939692955090935050565b600060208284031215620009e457600080fd5b815162000793816200075d565b60006020828403121562000a0457600080fd5b5051919050565b6000815180845260005b8181101562000a335760208185018101518683018201520162000a15565b506000602082860101526020601f19601f83011685010191505092915050565b60006001600160a01b03808916835280881660208401525060c0604083015262000a8160c083018762000a0b565b828103606084015262000a95818762000a0b565b91505060ff8416608083015260ff831660a0830152979650505050505050565b60a08152600062000aca60a083018862000a0b565b828103602084015262000ade818862000a0b565b91505060ff8516604083015260ff841660608301526001600160a01b03831660808301529695505050505050565b634e487b7160e01b600052603260045260246000fd5b600060ff821660ff810362000b4757634e487b7160e01b600052601160045260246000fd5b6001019291505056fe60c06040523480156200001157600080fd5b50604051620021eb380380620021eb833981016040819052620000349162000294565b83836003620000448382620003d7565b506004620000538282620003d7565b50505060648260ff16111580156200006e575060008260ff16115b620000cb5760405162461bcd60e51b815260206004820152602260248201527f736861726520706f6f6c20726174696f2073686f756c64203c3d31303020262060448201526103e360f41b60648201526084015b60405180910390fd5b60648160ff1611158015620000e3575060008260ff16115b620001315760405162461bcd60e51b815260206004820152601e60248201527f64696c75746520726174696f2073686f756c64203c3d3130302026203e3000006044820152606401620000c2565b600680546001600160a01b03191633179055600580546001600160a01b03968716608052601260a05260ff9283166101000261ffff19989097166201000002979097166001600160b01b03199097169690961791161792909217909255505060006007819055600855620004a3565b80516001600160a01b0381168114620001b857600080fd5b919050565b634e487b7160e01b600052604160045260246000fd5b600082601f830112620001e557600080fd5b81516001600160401b0380821115620002025762000202620001bd565b604051601f8301601f19908116603f011681019082821181831017156200022d576200022d620001bd565b816040528381526020925086838588010111156200024a57600080fd5b600091505b838210156200026e57858201830151818301840152908201906200024f565b600093810190920192909252949350505050565b805160ff81168114620001b857600080fd5b60008060008060008060c08789031215620002ae57600080fd5b620002b987620001a0565b9550620002c960208801620001a0565b60408801519095506001600160401b0380821115620002e757600080fd5b620002f58a838b01620001d3565b955060608901519150808211156200030c57600080fd5b506200031b89828a01620001d3565b9350506200032c6080880162000282565b91506200033c60a0880162000282565b90509295509295509295565b600181811c908216806200035d57607f821691505b6020821081036200037e57634e487b7160e01b600052602260045260246000fd5b50919050565b601f821115620003d257600081815260208120601f850160051c81016020861015620003ad5750805b601f850160051c820191505b81811015620003ce57828155600101620003b9565b5050505b505050565b81516001600160401b03811115620003f357620003f3620001bd565b6200040b8162000404845462000348565b8462000384565b602080601f8311600181146200044357600084156200042a5750858301515b600019600386901b1c1916600185901b178555620003ce565b600085815260208120601f198616915b82811015620004745788860151825594840194600190910190840162000453565b5085821015620004935787850151600019600388901b60f8161c191681555b5050505050600190811b01905550565b60805160a051611cff620004ec60003960006106bc01526000818161035c0152818161054c015281816107ac01528181610d7f0152818161135501526114150152611cff6000f3fe608060405234801561001057600080fd5b506004361061025c5760003560e01c806394bf804d11610145578063c6e6f592116100bd578063dd1bde291161008c578063ef8b30f711610071578063ef8b30f71461046f578063f77c479114610500578063f8e934021461051357600080fd5b8063dd1bde29146104b5578063dd62ed3e146104c757600080fd5b8063c6e6f5921461046f578063c75b464514610482578063ce96cb771461048f578063d905777e146104a257600080fd5b8063a9059cbb11610114578063b460af94116100f9578063b460af9414610449578063ba0876521461045c578063c63d75b61461039357600080fd5b8063a9059cbb14610423578063b3d7f6b91461043657600080fd5b806394bf804d146103ec57806395d89b41146103ff578063a10954fe14610407578063a457c2d71461041057600080fd5b80633018205f116101d8578063402d267d116101a75780634e71d92d1161018c5780634e71d92d146103a85780636e553f65146103b057806370a08231146103c357600080fd5b8063402d267d146103935780634cdad506146102c257600080fd5b80633018205f1461032f578063313ce5671461034057806338d52e0f1461035a578063395093511461038057600080fd5b8063095ea7b31161022f57806318160ddd1161021457806318160ddd1461030b57806319ecb7c81461031357806323b872dd1461031c57600080fd5b8063095ea7b3146102d55780630a28a477146102f857600080fd5b806301e1d1141461026157806302d05d3f1461027c57806306fdde03146102ad57806307a2d13a146102c2575b600080fd5b61026961051b565b6040519081526020015b60405180910390f35b600554610295906201000090046001600160a01b031681565b6040516001600160a01b039091168152602001610273565b6102b56105c4565b6040516102739190611a3c565b6102696102d0366004611a6f565b610656565b6102e86102e3366004611aa4565b610669565b6040519015158152602001610273565b610269610306366004611a6f565b610681565b600254610269565b61026960085481565b6102e861032a366004611ace565b61068e565b6006546001600160a01b0316610295565b6103486106b4565b60405160ff9091168152602001610273565b7f0000000000000000000000000000000000000000000000000000000000000000610295565b6102e861038e366004611aa4565b6106e0565b6102696103a1366004611b0a565b5060001990565b61026961071f565b6102696103be366004611b25565b61082d565b6102696103d1366004611b0a565b6001600160a01b031660009081526020819052604090205490565b6102696103fa366004611b25565b610994565b6102b5610a46565b61026960075481565b6102e861041e366004611aa4565b610a55565b6102e8610431366004611aa4565b610b0a565b610269610444366004611a6f565b610b18565b610269610457366004611b51565b610b25565b61026961046a366004611b51565b610c0d565b61026961047d366004611a6f565b610cf5565b6005546103489060ff1681565b61026961049d366004611b0a565b610d02565b6102696104b0366004611b0a565b610d26565b60055461034890610100900460ff1681565b6102696104d5366004611b8d565b6001600160a01b03918216600090815260016020908152604080832093909416825291909152205490565b600654610295906001600160a01b031681565b610269610d44565b6040517f70a082310000000000000000000000000000000000000000000000000000000081523060048201526000907f00000000000000000000000000000000000000000000000000000000000000006001600160a01b0316906370a0823190602401602060405180830381865afa15801561059b573d6000803e3d6000fd5b505050506040513d601f19601f820116820180604052508101906105bf9190611bb7565b905090565b6060600380546105d390611bd0565b80601f01602080910402602001604051908101604052809291908181526020018280546105ff90611bd0565b801561064c5780601f106106215761010080835404028352916020019161064c565b820191906000526020600020905b81548152906001019060200180831161062f57829003601f168201915b5050505050905090565b6000610663826000610e00565b92915050565b600033610677818585610e43565b5060019392505050565b6000610663826001610f9b565b60003361069c858285610fd2565b6106a7858585611064565b60019150505b9392505050565b60006105bf817f0000000000000000000000000000000000000000000000000000000000000000611c20565b3360008181526001602090815260408083206001600160a01b0387168452909152812054909190610677908290869061071a908790611c39565b610e43565b6006546000906001600160a01b0316331461079a5760405162461bcd60e51b815260206004820152603060248201527f506c6561736520696e746572616374207669612074686520726967687420537560448201526f70706f7274436f6e74726f6c6c65722160801b60648201526084015b60405180910390fd5b6007805460009091556005546107e1907f0000000000000000000000000000000000000000000000000000000000000000906201000090046001600160a01b031683611251565b600554604051828152620100009091046001600160a01b0316907f47cee97cb7acd717b3c0aa1435d004cd5b3c8c57d70dbceb4e4458bbd60e39d49060200160405180910390a2905090565b6006546000906001600160a01b031633146108a35760405162461bcd60e51b815260206004820152603060248201527f506c6561736520696e746572616374207669612074686520726967687420537560448201526f70706f7274436f6e74726f6c6c65722160801b6064820152608401610791565b6005546000906108ba90859060ff166064846112ff565b6005549091506000906108d9908390610100900460ff166064846112ff565b905060006108e682610cf5565b90506000811161095e5760405162461bcd60e51b815260206004820152602660248201527f4465706f736974206d6f72652120596f7572206465706f73697420676574203060448201527f20736861726500000000000000000000000000000000000000000000000000006064820152608401610791565b61096a85868884611350565b6109748387611c4c565b600760008282546109859190611c39565b90915550909695505050505050565b6006546000906001600160a01b03163314610a0a5760405162461bcd60e51b815260206004820152603060248201527f506c6561736520696e746572616374207669612074686520726967687420537560448201526f70706f7274436f6e74726f6c6c65722160801b6064820152608401610791565b600554600090610a2390859060649060ff1660016112ff565b90506000610a3082610b18565b9050610a3e33858388611350565b949350505050565b6060600480546105d390611bd0565b3360008181526001602090815260408083206001600160a01b038716845290915281205490919083811015610af25760405162461bcd60e51b815260206004820152602560248201527f45524332303a2064656372656173656420616c6c6f77616e63652062656c6f7760448201527f207a65726f0000000000000000000000000000000000000000000000000000006064820152608401610791565b610aff8286868403610e43565b506001949350505050565b600033610677818585611064565b6000610663826001610e00565b6006546000906001600160a01b03163314610b9b5760405162461bcd60e51b815260206004820152603060248201527f506c6561736520696e746572616374207669612074686520726967687420537560448201526f70706f7274436f6e74726f6c6c65722160801b6064820152608401610791565b610ba482610d02565b841115610bf35760405162461bcd60e51b815260206004820152601f60248201527f455243343632363a207769746864726177206d6f7265207468616e206d6178006044820152606401610791565b6000610bfe85610681565b9050610a3e33858588856113e2565b6006546000906001600160a01b03163314610c835760405162461bcd60e51b815260206004820152603060248201527f506c6561736520696e746572616374207669612074686520726967687420537560448201526f70706f7274436f6e74726f6c6c65722160801b6064820152608401610791565b610c8c82610d26565b841115610cdb5760405162461bcd60e51b815260206004820152601d60248201527f455243343632363a2072656465656d206d6f7265207468616e206d61780000006044820152606401610791565b6000610ce685610656565b9050610a3e33858584896113e2565b6000610663826000610f9b565b6001600160a01b038116600090815260208190526040812054610663906000610e00565b6001600160a01b038116600090815260208190526040812054610663565b6040517f70a0823100000000000000000000000000000000000000000000000000000000815230600482015260009081906001600160a01b037f000000000000000000000000000000000000000000000000000000000000000016906370a0823190602401602060405180830381865afa158015610dc6573d6000803e3d6000fd5b505050506040513d601f19601f82011682018060405250810190610dea9190611bb7565b905060075481610dfa9190611c4c565b91505090565b600080610e0c60025490565b90506000610e18610d44565b9050600082600003610e2b575084610e3a565b610e37868385886112ff565b90505b95945050505050565b6001600160a01b038316610ebe5760405162461bcd60e51b8152602060048201526024808201527f45524332303a20617070726f76652066726f6d20746865207a65726f2061646460448201527f72657373000000000000000000000000000000000000000000000000000000006064820152608401610791565b6001600160a01b038216610f3a5760405162461bcd60e51b815260206004820152602260248201527f45524332303a20617070726f766520746f20746865207a65726f20616464726560448201527f73730000000000000000000000000000000000000000000000000000000000006064820152608401610791565b6001600160a01b0383811660008181526001602090815260408083209487168084529482529182902085905590518481527f8c5be1e5ebec7d5bd14f71427d1e84f3dd0314c0f7b2291e5b200ac8c7c3b925910160405180910390a3505050565b600080610fa760025490565b90506000610fb3610d44565b9050600082600003610fc6575084610e3a565b610e37868484886112ff565b6001600160a01b03838116600090815260016020908152604080832093861683529290522054600019811461105e57818110156110515760405162461bcd60e51b815260206004820152601d60248201527f45524332303a20696e73756666696369656e7420616c6c6f77616e63650000006044820152606401610791565b61105e8484848403610e43565b50505050565b6001600160a01b0383166110e05760405162461bcd60e51b815260206004820152602560248201527f45524332303a207472616e736665722066726f6d20746865207a65726f20616460448201527f64726573730000000000000000000000000000000000000000000000000000006064820152608401610791565b6001600160a01b03821661115c5760405162461bcd60e51b815260206004820152602360248201527f45524332303a207472616e7366657220746f20746865207a65726f206164647260448201527f65737300000000000000000000000000000000000000000000000000000000006064820152608401610791565b6001600160a01b038316600090815260208190526040902054818110156111eb5760405162461bcd60e51b815260206004820152602660248201527f45524332303a207472616e7366657220616d6f756e742065786365656473206260448201527f616c616e636500000000000000000000000000000000000000000000000000006064820152608401610791565b6001600160a01b03848116600081815260208181526040808320878703905593871680835291849020805487019055925185815290927fddf252ad1be2c89b69c2b068fc378daa952ba7f163c4a11628f55a4df523b3ef910160405180910390a361105e565b6040516001600160a01b0383166024820152604481018290526112fa9084907fa9059cbb00000000000000000000000000000000000000000000000000000000906064015b60408051601f198184030181529190526020810180517bffffffffffffffffffffffffffffffffffffffffffffffffffffffff167fffffffff00000000000000000000000000000000000000000000000000000000909316929092179091526114a2565b505050565b60008061130d86868661158a565b9050600183600281111561132357611323611c5f565b14801561134057506000848061133b5761133b611c75565b868809115b15610e3a57610e37600182611c39565b61137c7f000000000000000000000000000000000000000000000000000000000000000085308561167c565b61138683826116cd565b826001600160a01b0316846001600160a01b03167fdcbc1c05240f31ff3ad067ef1ee35ce4997762752e3a095284754544f4c709d784846040516113d4929190918252602082015260400190565b60405180910390a350505050565b826001600160a01b0316856001600160a01b03161461140657611406838683610fd2565b611410838261178c565b61143b7f00000000000000000000000000000000000000000000000000000000000000008584611251565b826001600160a01b0316846001600160a01b0316866001600160a01b03167ffbde797d201c681b91056529119e0b02407c7bb96a4a2c75c01fc9667232c8db8585604051611493929190918252602082015260400190565b60405180910390a45050505050565b60006114f7826040518060400160405280602081526020017f5361666545524332303a206c6f772d6c6576656c2063616c6c206661696c6564815250856001600160a01b03166118f59092919063ffffffff16565b90508051600014806115185750808060200190518101906115189190611c8b565b6112fa5760405162461bcd60e51b815260206004820152602a60248201527f5361666545524332303a204552433230206f7065726174696f6e20646964206e60448201527f6f742073756363656564000000000000000000000000000000000000000000006064820152608401610791565b60008080600019858709858702925082811083820303915050806000036115c4578382816115ba576115ba611c75565b04925050506106ad565b8084116116135760405162461bcd60e51b815260206004820152601560248201527f4d6174683a206d756c446976206f766572666c6f7700000000000000000000006044820152606401610791565b60008486880960026001871981018816978890046003810283188082028403028082028403028082028403028082028403028082028403029081029092039091026000889003889004909101858311909403939093029303949094049190911702949350505050565b6040516001600160a01b038085166024830152831660448201526064810182905261105e9085907f23b872dd0000000000000000000000000000000000000000000000000000000090608401611296565b6001600160a01b0382166117235760405162461bcd60e51b815260206004820152601f60248201527f45524332303a206d696e7420746f20746865207a65726f2061646472657373006044820152606401610791565b80600260008282546117359190611c39565b90915550506001600160a01b038216600081815260208181526040808320805486019055518481527fddf252ad1be2c89b69c2b068fc378daa952ba7f163c4a11628f55a4df523b3ef910160405180910390a35050565b6001600160a01b0382166118085760405162461bcd60e51b815260206004820152602160248201527f45524332303a206275726e2066726f6d20746865207a65726f2061646472657360448201527f73000000000000000000000000000000000000000000000000000000000000006064820152608401610791565b6001600160a01b038216600090815260208190526040902054818110156118975760405162461bcd60e51b815260206004820152602260248201527f45524332303a206275726e20616d6f756e7420657863656564732062616c616e60448201527f63650000000000000000000000000000000000000000000000000000000000006064820152608401610791565b6001600160a01b0383166000818152602081815260408083208686039055600280548790039055518581529192917fddf252ad1be2c89b69c2b068fc378daa952ba7f163c4a11628f55a4df523b3ef910160405180910390a3505050565b6060610a3e848460008585600080866001600160a01b0316858760405161191c9190611cad565b60006040518083038185875af1925050503d8060008114611959576040519150601f19603f3d011682016040523d82523d6000602084013e61195e565b606091505b509150915061196f8783838761197a565b979650505050505050565b606083156119e95782516000036119e2576001600160a01b0385163b6119e25760405162461bcd60e51b815260206004820152601d60248201527f416464726573733a2063616c6c20746f206e6f6e2d636f6e74726163740000006044820152606401610791565b5081610a3e565b610a3e83838151156119fe5781518083602001fd5b8060405162461bcd60e51b81526004016107919190611a3c565b60005b83811015611a33578181015183820152602001611a1b565b50506000910152565b6020815260008251806020840152611a5b816040850160208701611a18565b601f01601f19169190910160400192915050565b600060208284031215611a8157600080fd5b5035919050565b80356001600160a01b0381168114611a9f57600080fd5b919050565b60008060408385031215611ab757600080fd5b611ac083611a88565b946020939093013593505050565b600080600060608486031215611ae357600080fd5b611aec84611a88565b9250611afa60208501611a88565b9150604084013590509250925092565b600060208284031215611b1c57600080fd5b6106ad82611a88565b60008060408385031215611b3857600080fd5b82359150611b4860208401611a88565b90509250929050565b600080600060608486031215611b6657600080fd5b83359250611b7660208501611a88565b9150611b8460408501611a88565b90509250925092565b60008060408385031215611ba057600080fd5b611ba983611a88565b9150611b4860208401611a88565b600060208284031215611bc957600080fd5b5051919050565b600181811c90821680611be457607f821691505b602082108103611c0457634e487b7160e01b600052602260045260246000fd5b50919050565b634e487b7160e01b600052601160045260246000fd5b60ff818116838216019081111561066357610663611c0a565b8082018082111561066357610663611c0a565b8181038181111561066357610663611c0a565b634e487b7160e01b600052602160045260246000fd5b634e487b7160e01b600052601260045260246000fd5b600060208284031215611c9d57600080fd5b815180151581146106ad57600080fd5b60008251611cbf818460208701611a18565b919091019291505056fea26469706673582212200af034f15c23108120e248875f2676d35363a5469451dc037d9175054ec4408864736f6c63430008110033a26469706673582212205a8e346484e34a0d57dfb2bdee8809d6bf6213aa4ad77330b84de3ec1c8b911864736f6c63430008110033",
  "devdoc": {
    "kind": "dev",
    "methods": {},
    "version": 1
  },
  "userdoc": {
    "kind": "user",
    "methods": {},
    "version": 1
  },
  "storageLayout": {
    "storage": [
      {
        "astId": 14110,
        "contract": "src/v1/SupportController.sol:SupportController",
        "label": "allVaults",
        "offset": 0,
        "slot": "0",
        "type": "t_mapping(t_address,t_array(t_address)dyn_storage)"
      },
      {
        "astId": 14113,
        "contract": "src/v1/SupportController.sol:SupportController",
        "label": "unlimited",
        "offset": 0,
        "slot": "1",
        "type": "t_uint256"
      }
    ],
    "types": {
      "t_address": {
        "encoding": "inplace",
        "label": "address",
        "numberOfBytes": "20"
      },
      "t_array(t_address)dyn_storage": {
        "base": "t_address",
        "encoding": "dynamic_array",
        "label": "address[]",
        "numberOfBytes": "32"
      },
      "t_mapping(t_address,t_array(t_address)dyn_storage)": {
        "encoding": "mapping",
        "key": "t_address",
        "label": "mapping(address => address[])",
        "numberOfBytes": "32",
        "value": "t_array(t_address)dyn_storage"
      },
      "t_uint256": {
        "encoding": "inplace",
        "label": "uint256",
        "numberOfBytes": "32"
      }
    }
  }
}